:020000040000FA
:100000000C9462000C947C040C9455040C948A00AB
:100010000C948A000C948A000C948A000C948A0038
:100020000C948A000C948A000C948A000C948A0028
:100030000C948A000C948A000C948A000C948A0018
:100040000C940B040C948A000C948A000C948A0083
:100050000C948A000C948A000C948A000C948A00F8
:100060000C94A3040C948A000000000024002700D4
:100070002A0000000000250028002B0000000008D6
:10008000000201000003040700000000000000005F
:1000900000000000230026002900040404040404D6
:1000A0000404020202020202030303030303010227
:1000B00004081020408001020408102001020408F6
:1000C0001020030611241FBECFEFD8E0DEBFCDBF46
:1000D00011E0A0E0B1E0E0EBF7E102C005900D9285
:1000E000AE36B107D9F722E0AEE6B1E001C01D920D
:1000F000A730B207E1F710E0C2E6D0E004C02197D4
:10010000FE010E94D00BC136D107C9F70E9421061B
:100110000C94D60B0C9400009091EA0181E09111AF
:1001200080E08093EA010895AF92BF92CF92DF9270
:10013000EF92FF920F931F93CF93DF936C017B019C
:100140008B01040F151FEB015E01AE18BF08C0172D
:10015000D10759F06991D601ED91FC910190F081A0
:10016000E02DC6010995892B79F7C501DF91CF9163
:100170001F910F91FF90EF90DF90CF90BF90AF90C5
:10018000089590E0FC01E458FF4F2491FC01E255F2
:10019000FF4F3491FC01E656FF4FE491EE23C9F086
:1001A000222339F0233001F1A8F4213019F1223053
:1001B00029F1F0E0EE0FFF1FEE58FF4FA591B4912B
:1001C0008FB7F894EC91611126C030953E233C9393
:1001D0008FBF08952730A9F02830C9F0243049F79F
:1001E000809180008F7D03C0809180008F77809305
:1001F0008000DFCF84B58F7784BDDBCF84B58F7D62
:10020000FBCF8091B0008F778093B000D2CF8091E8
:10021000B0008F7DF9CF3E2BDACFCF93DF9390E004
:10022000FC01E255FF4F249186569F4FFC018491BB
:100230008823D1F090E0880F991FFC01E859FF4F07
:10024000A591B491FC01EE58FF4FC591D491611175
:100250000EC09FB7F8948C91E22FE0958E238C937B
:100260002881E223E8839FBFDF91CF9108958FB764
:10027000F894EC91E22BEC938FBFF6CF3FB7F89454
:100280008091E4019091E501A091E601B091E70130
:1002900026B5A89B05C02F3F19F00196A11DB11DE1
:1002A0003FBFBA2FA92F982F8827BC01CD01620F1D
:1002B000711D811D911D42E0660F771F881F991FD8
:1002C0004A95D1F708958F929F92AF92BF92CF92A5
:1002D000DF92EF92FF924B015C010E943E016B01A5
:1002E0007C010E943E016C197D098E099F09683EC0
:1002F000734081059105A8F321E0821A9108A108B5
:10030000B10888EEC80E83E0D81EE11CF11C8114F0
:100310009104A104B10429F7FF90EF90DF90CF90F2
:10032000BF90AF909F908F90089508950895209169
:100330009501260F3327331F21323105ECF420912C
:10034000B901FC0190E080E0243069F082E008957A
:10035000A09195012191AC014B585E4FA40FB52F90
:10036000B11D2C930196861798F380919501680F23
:100370006093950180E0089581E0089508958FEFDE
:100380009FEF08958FEF9FEF089580916E0190E0A9
:100390009195819591090895CF93DF93CB01EA015F
:1003A000642F0E949701CE01DF91CF910895CF93E2
:1003B000DF931F92CDB7DEB7698361E0CE0101966E
:1003C0000E94970181E090E00F90DF91CF91089516
:1003D00090E080E00895FC0101900020E9F731975A
:1003E000AF01481B590BBC018FEE91E00C949400B7
:1003F0008F929F92AF92BF920F931F93CF93DF93F1
:10040000CDB7DEB7A1970FB6F894DEBF0FBECDBF54
:1004100019A2423008F44AE08E010F5D1F4F842E6E
:10042000912CB12CA12CA50194010E94AE0BE62FBA
:10043000B901CA01EA30F4F4E05DD801EE938D0110
:10044000232B242B252B79F790E080E0109719F0CF
:10045000CD010E94EB01A1960FB6F894DEBF0FBE4E
:10046000CDBFDF91CF911F910F91BF90AF909F9023
:100470008F900895E95CE1CFCF93DF93EC0160E0CA
:100480008E810E94C10061E08E810E94C10060E007
:100490008E810E94C1008BE891E00197F1F7DF9116
:1004A000CF910895CF92DF92EF92FF920F931F9317
:1004B000CF93DF936C017C0187E0E80EF11CD0E064
:1004C000C0E0062F10E0B8010C2E02C075956795AC
:1004D0000A94E2F76170F70181917F010E94C100E7
:1004E0002196C430D10579F7C601DF91CF911F91D4
:1004F0000F91FF90EF90DF90CF900C943C02CF9241
:10050000DF92EF92FF920F931F93CF93DF93EC0153
:10051000F62E642F8C810E94C1008D818F3F19F0CF
:1005200060E00E94C1000F2D10E08F8584FF25C080
:100530006E0187E0C80ED11CF12CE12CB8010E2C05
:1005400002C0759567950A94E2F76170F601819192
:100550006F010E94C100FFEFEF1AFF0A88E0E81662
:10056000F10461F7CE01DF91CF911F910F91FF90C0
:10057000EF90DF90CF900C943C02B80184E0759529
:1005800067958A95E1F7CE010E9452026F2DCE0148
:10059000DF91CF911F910F91FF90EF90DF90CF905F
:1005A0000C94520240E0682F8FEE91E00C947F0291
:1005B00081E00E94D2028BE39FE10197F1F7089559
:1005C000CF93DF93823029F49091FE01986090934D
:1005D000FE01809302021092030280E480930402E1
:1005E00080E18093050280E58093060261E08091BE
:1005F000F3010E940D018091F4018F3F19F061E039
:100600000E940D0161E08091F5010E940D01CFEE85
:10061000D1E09E012F5E31408091FE0184FD0BC030
:1006200084E090E021962817390744F461E08E8138
:100630000E940D01EECF88E090E0F4CF8BE39DE0C7
:100640000197F1F760E08091F3010E94C10060E042
:100650008091F5010E94C1008091F4018F3F19F053
:1006600060E00E94C1008091FE0184FD34C063E01F
:100670008FEE91E00E945202CBE4D6E4CE010197C6
:10068000F1F763E08FEE91E00E9452022197F1F7BB
:1006900063E08FEE91E00E94520283E592E00197C1
:1006A000F1F762E08FEE91E00E9452028091FE012C
:1006B00080620E94D20284E08093FF018CE00E945D
:1006C000D2020E94D80282E08093000286E0DF918D
:1006D000CF910C94D20280620E94D2028BE496E405
:1006E0000197F1F78091FE0180620E94D20283E5BA
:1006F00092E00197F1F78091FE0180620E94D202A0
:10070000D5CF90910202691710F06FEF690FE62FB5
:10071000F0E0E151FE4F9489890F80680C94D20279
:1007200041E00E947F0281E090E008951F93CF9303
:10073000DF9385ED8093BC008091710190917201EF
:10074000A0917301B09174010796A11DB11D23E022
:10075000B695A795979587952A95D1F72091BC00D6
:1007600024FD03C01092B90152C040917101509113
:1007700072016091730170917401452B462B472BD8
:1007800069F30097A105B10541F025E32A95F1F73A
:1007900000000197A109B109E1CF80917001C1E08A
:1007A000C0936F01882399F1D091B8001091BA00DD
:1007B0008091BC008A7B8093BC0060E082E10E9453
:1007C000C10060E083E10E94C1001092B901C093B2
:1007D000BB011092BA0161E082E10E94C10061E0B8
:1007E00083E10E94C1008091B9008E7F8093B9009F
:1007F0008091B9008D7F8093B90088E48093B80020
:1008000085E48093BC001093BA00D093B800DF91C8
:10081000CF911F9108951F920F920FB60F9211243E
:100820002F933F938F939F93AF93BF938091E0015A
:100830009091E101A091E201B091E3013091DF01DB
:1008400023E0230F2D3758F50196A11DB11D2093EC
:10085000DF018093E0019093E101A093E201B09366
:10086000E3018091E4019091E501A091E601B0914E
:10087000E7010196A11DB11D8093E4019093E5016C
:10088000A093E601B093E701BF91AF919F918F9143
:100890003F912F910F900FBE0F901F90189526E853
:1008A000230F0296A11DB11DD2CF1F920F920FB63A
:1008B0000F9211242F933F934F935F936F937F93E6
:1008C0008F939F93AF93BF93EF93FF93E0910201B8
:1008D000F09103010995FF91EF91BF91AF919F9125
:1008E0008F917F916F915F914F913F912F910F90D9
:1008F0000FBE0F901F9018951F920F920FB60F9278
:1009000011242F933F934F935F936F937F938F9314
:100910009F93AF93BF93EF93FF93E0910001F0910A
:1009200001010995FF91EF91BF91AF919F918F9137
:100930007F916F915F914F913F912F910F900FBEDB
:100940000F901F9018951F920F920FB60F921124BF
:100950002F933F934F935F936F937F938F939F93C7
:10096000AF93BF93EF93FF938091B900887F803658
:1009700009F44AC0F0F5883209F4A5C018F58031B1
:1009800009F499C0B8F4882309F4F5C0883009F453
:1009900092C0FF91EF91BF91AF919F918F917F9105
:1009A0006F915F914F913F912F910F900FBE0F90DC
:1009B0001F901895883109F486C0803251F78093D2
:1009C000B80114C0803409F49BC040F48033B9F3FB
:1009D0008833F9F68093B80185ECAEC0803509F410
:1009E00083C0883509F494C0883499F60E94960330
:1009F000D0CF883909F48AC038F5883729F050F407
:100A0000883611F0803729F683E08093B90110927F
:100A1000B70155C0883809F479C0803919F0803899
:100A200009F0B7CF8091B701803208F06FC0E09134
:100A3000B70181E08E0F8093B7018091BB00F0E099
:100A4000E956FE4F80833BC0803B39F0D0F4803ABA
:100A500009F477C0883A09F09CCF84E08093B9010B
:100A60001092960110929501F0E0E0E009958091D6
:100A7000950181110FC081E080939501109275015D
:100A800009C0803C09F4A8CF883C09F4A5CF883B75
:100A900009F07FCFE091960181E08E0F809396015F
:100AA000F0E0EB58FE4F80818093BB00909196015F
:100AB0008091950129C08091DE018093BB0085EC77
:100AC0008093BC0066CF9091DD018091DC01981786
:100AD00058F5E091DD0181E08E0F8093DD01F0E0BB
:100AE000E454FE4F8081E9CFE091DD0181E08E0F7B
:100AF0008093DD018091BB00F0E0E454FE4F8083E1
:100B00009091DD018091DC019817C8F285E8D8CF7B
:100B1000E091DD0181E08E0F8093DD018091BB00CB
:100B2000F0E0E454FE4F80838091BB0181115ECFE1
:100B300081E08093BA0184EA8093BC001092B901ED
:100B400028CF85EC8093BC001092B9018091B70149
:100B5000803230F4E091B701F0E0E956FE4F1082A8
:100B60006091B70170E087E991E0F0E0E0E009957D
:100B70001092B7010ECF1092B80138CFCF92DF920A
:100B8000EF92FF920F931F93E82FF92F05C00150AA
:100B900011092109310961F1908196239417B9F364
:100BA00005C0015011092109310911F190819623E5
:100BB0009413F7CFC12CD12CE12CF12C0AC08FEF6C
:100BC000C81AD80AE80AF80A0C151D052E053F05B3
:100BD00079F080818623841791F36C2D7D2D8E2DE5
:100BE0009F2D1F910F91FF90EF90DF90CF90089570
:100BF00060E070E080E090E01F910F91FF90EF9037
:100C0000DF90CF900895EFEEF1E01382128288E03A
:100C100091E0918380838CE084838FEF85838BE0E8
:100C200086838AE0878389E0808788E0818787E000
:100C300082871386148615861686178681E00C94A3
:100C4000E002789484B5826084BD84B5816084BDFF
:100C500085B5826085BD85B5816085BD80916E005A
:100C6000816080936E00109281008091810082608B
:100C700080938100809181008160809381008091C8
:100C800080008160809380008091B10084608093B7
:100C9000B1008091B00081608093B00080917A00B3
:100CA000846080937A0080917A00826080937A00D9
:100CB00080917A00816080937A0080917A008068C8
:100CC00080937A001092C10060E08EE00E940D01D6
:100CD00060E085E00E940D0161E08FE00E940D015F
:100CE00061E080E10E940D0161E081E10E940D015F
:100CF00061E082E10E940D0161E083E10E940D014B
:100D000061E086E00E940D0161E084E00E940D0137
:100D100061E083E00E940D018CE890E09093010176
:100D200080930001809169008C7F826080936900CC
:100D3000E89A82E00E94E00293E2292E312CC0E082
:100D4000D0E01092EE011092ED011092EC011092A1
:100D5000EB010E94D80260E083E00E94C10060E0E5
:100D600084E00E94C1008091EA01813009F0ADC2A7
:100D700060E086E00E94C10083E090E00197F1F717
:100D800061E086E00E94C100C1010197F1F760E0D7
:100D900086E00E94C100E3EBF0E06491EFE9F0E04F
:100DA0008491E82FF0E0EE0FFF1FE057FF4F859191
:100DB000949100E412E42FE030E0462F0E94BE053B
:100DC000611571058105910529F06F5F7F4F8F4F88
:100DD0009F4F9F700E94870A26E933E44BE05DE352
:100DE0000E943C0B20E030E040E05FE30E943C0BBF
:100DF0000E944F0A7093E9016093E8016333710523
:100E00000CF054C260E080E00E94810380E191E038
:100E10000E94EB0160E08AE00E948103C090E8013B
:100E2000D090E9010D2C000CEE08FF084AE0C70144
:100E3000B601F7FE0EC041E06DE28FEE91E00E9438
:100E40007F0266277727CB016C197D098E099F09E0
:100E50004AE00E94F8018BE191E00E94EB0181E2FF
:100E600091E00E94EB0161E080E00E94810384E256
:100E700091E00E94EB0168E873E180E090E00E945D
:100E80006301F0E4F0937C0080917A0080648093A9
:100E90007A0080917A0086FDFCCF80917800609185
:100EA0007900762F682F072E000C880B990B0E9473
:100EB000870A20E030E040E85AE30E943C0B20E043
:100EC00030E44CE955E40E943C0B20E030E04AEF6E
:100ED00053E40E946B0920E030E040E251E40E94BC
:100EE000DD096B017C0161E08CE00E948103A701B8
:100EF0009601C701B6010E94A90B882309F476C0A8
:100F000086E391E00E94EB0182E491E00E94EB0114
:100F100081E291E00E94EB0120E030E048EC52E4F5
:100F2000C701B6010E94D80987FF97C160ED77E03D
:100F300080E090E00E9463010E94D80260E080E0BF
:100F40000E94810382E591E00E94EB0161E083E170
:100F50000E94C10061E083E00E94C10068E873E183
:100F600080E090E00E94630160E083E10E94C100A4
:100F700060E080E00E94810385E491E00E94EB0143
:100F80001092EE011092ED01C090ED01D090EE01B3
:100F900086E0C816D10408F0F5C000E018E0F12C96
:100FA000E12CE1E0EE16F10409F4DCC00CF0B2C073
:100FB000E114F10409F4C5C0FFEFEF1AFF0A84E061
:100FC000E816F10414F0F12CE12C62E070E080E00E
:100FD00090E00E9463010150110919F7EFEFCE1A5A
:100FE000DE0AD092EE01C092ED01CECF460157014C
:100FF000E894B7F82FEF3FEF4FE75FE7C501B40183
:101000000E94A90B81110DC02FEF3FEF4FE75FE763
:10101000C501B4010E94D80918161CF48AE391E0B6
:1010200071CF2FEF3FEF4FE75FE4C701B6010E949A
:10103000370B18161CF48EE391E064CF2FEF3FEFCF
:101040004FE75FECC701B6010E94D80987FDF3CFD7
:1010500020E030E0A901C701B6010E94D80987FF4E
:1010600056C041E06DE28FEE91E00E947F02C70121
:10107000B60190582AE037ED43EA5BE30E946C0921
:101080002B013C010E94560A4B015C010E94850A1B
:101090009B01AC01C301B2010E946B092B013C0111
:1010A0004AE0C501B4010E94F80141E06EE28FEE12
:1010B00091E00E947F0220E030E040E251E4C30171
:1010C000B2010E943C0B2B013C010E94560A4B01CD
:1010D000B12CA12C4AE0C501B4010E94F801C50160
:1010E000B4010E94850A9B01AC01C301B2010E94B8
:1010F0006B0920E030E040E251E40E943C0B0E948A
:10110000560A90E080E04AE00E94F801FDCEC70157
:10111000B601B0CF82E0E816F10451F1E3E0EE163B
:10112000F10409F049CF60E08FE00E94C10060E067
:1011300080E10E94C10060E081E10E94C10061E0A5
:101140000DC061E08FE00E94C10060E080E10E947C
:10115000C10060E081E10E94C10060E082E10E9484
:10116000C1002ACF60E08FE00E94C10061E0EECFB5
:1011700060E08FE00E94C10060E080E10E94C10059
:1011800061E0E8CF1092EC011092EB01C090EB010E
:10119000D090EC01F6E0CF16D10408F080C000E05A
:1011A00018E0F12CE12C81E0E816F10409F43DC0CF
:1011B000ECF4E114F10441F1EFEFEE1AFE0AF4E071
:1011C000EF16F10414F0F12CE12C62E070E080E005
:1011D00090E00E9463010150110929F78FEFC81AAE
:1011E000D80AD092EC01C092EB01D0CFF2E0EF161A
:1011F000F10449F183E0E816F104F1F661E08FE0D3
:101200000E94C10060E024C060E08FE00E94C10045
:1012100060E080E10E94C10060E081E10E94C100C5
:1012200061E082E10E94C100C7CF60E08FE00E94D0
:10123000C10060E080E10E94C10061E081E10E94A4
:10124000C10060E0EECF60E08FE00E94C10061E08D
:1012500080E10E94C10060E0F1CF60ED77E080E0C6
:1012600090E00E9463010E94D80260E080E00E944A
:1012700081038EE491E00E94EB0161E084E00E9432
:10128000C10060ED77E080E090E00E94630160E0E3
:1012900080E00E94810388E591E00E94EB0168EB09
:1012A0007BE080E090E00E9463014BCD60E080E055
:1012B0000E94810381E691E00E94EB0168EE73E0F9
:1012C00080E090E00E94630153CD209709F439CD6E
:1012D0000E94000036CD5058BB27AA270E948309E0
:1012E0000C94FD0A0E94EF0A38F00E94F60A20F0E2
:1012F00039F49F3F19F426F40C94EC0A0EF4E095AF
:10130000E7FB0C94E60AE92F0E940E0B58F3BA177C
:10131000620773078407950720F079F4A6F50C940B
:10132000300B0EF4E0950B2EBA2FA02D0B01B90156
:1013300090010C01CA01A0011124FF27591B99F04B
:10134000593F50F4503E68F11A16F040A22F232F57
:10135000342F4427585FF3CF469537952795A795A7
:10136000F0405395C9F77EF41F16BA0B620B730B4E
:10137000840BBAF09150A1F0FF0FBB1F661F771FBF
:10138000881FC2F70EC0BA0F621F731F841F48F474
:10139000879577956795B795F7959E3F08F0B0CFFD
:1013A0009395880F08F09927EE0F979587950895E4
:1013B0000E94C20A08F481E008950E94F1090C9489
:1013C000FD0A0E94F60A58F00E94EF0A40F029F444
:1013D0005F3F29F00C94E60A51110C94310B0C94E8
:1013E000EC0A0E940E0B68F39923B1F3552391F395
:1013F000951B550BBB27AA2762177307840738F084
:101400009F5F5F4F220F331F441FAA1FA9F335D0E0
:101410000E2E3AF0E0E832D091505040E695001C94
:10142000CAF72BD0FE2F29D0660F771F881FBB1F4E
:10143000261737074807AB07B0E809F0BB0B802D2C
:10144000BF01FF2793585F4F3AF09E3F510578F058
:101450000C94E60A0C94310B5F3FE4F3983ED4F30E
:10146000869577956795B795F7959F5FC9F7880F2C
:10147000911D9695879597F90895E1E0660F771F7E
:10148000881FBB1F621773078407BA0720F0621B0F
:10149000730B840BBA0BEE1F88F7E09508950E943A
:1014A000560A6894B1110C94310B08950E94160BE2
:1014B00088F09F5798F0B92F9927B751B0F0E1F015
:1014C000660F771F881F991F1AF0BA95C9F714C0C5
:1014D000B13091F00E94300BB1E008950C94300BC4
:1014E000672F782F8827B85F39F0B93FCCF38695FE
:1014F00077956795B395D9F73EF49095809570955B
:1015000061957F4F8F4F9F4F0895E89409C097FBD7
:101510003EF490958095709561957F4F8F4F9F4FCA
:101520009923A9F0F92F96E9BB279395F69587950E
:1015300077956795B795F111F8CFFAF4BB0F11F4D1
:1015400060FF1BC06F5F7F4F8F4F9F4F16C0882378
:1015500011F096E911C0772321F09EE8872F762FAE
:1015600005C0662371F096E8862F70E060E02AF0EF
:101570009A95660F771F881FDAF7880F96958795DB
:1015800097F90895990F0008550FAA0BE0E8FEEFB0
:1015900016161706E807F907C0F012161306E40737
:1015A000F50798F0621B730B840B950B39F40A2630
:1015B00061F0232B242B252B21F408950A2609F40E
:1015C000A140A6958FEF811D811D089597F99F6712
:1015D00080E870E060E008959FEF80EC08950024BB
:1015E0000A941616170618060906089500240A9488
:1015F00012161306140605060895092E0394000C0E
:1016000011F4882352F0BB0F40F4BF2B11F460FF9C
:1016100004C06F5F7F4F8F4F9F4F089557FD9058C5
:10162000440F551F59F05F3F71F04795880F97FBA6
:10163000991F61F09F3F79F0879508951216130660
:101640001406551FF2CF4695F1DF08C0161617068F
:101650001806991FF1CF86957105610508940895C4
:10166000E894BB2766277727CB0197F908950E9456
:10167000C20A08F48FEF08950E944F0B0C94FD0AE4
:101680000E94EF0A38F00E94F60A20F0952311F02C
:101690000C94E60A0C94EC0A11240C94310B0E9471
:1016A0000E0B70F3959FC1F3950F50E0551F629F8D
:1016B000F001729FBB27F00DB11D639FAA27F00DAB
:1016C000B11DAA1F649F6627B00DA11D661F829FD2
:1016D0002227B00DA11D621F739FB00DA11D621FB7
:1016E000839FA00D611D221F749F3327A00D611DD4
:1016F000231F849F600D211D822F762F6A2F1124B6
:101700009F5750409AF0F1F088234AF0EE0FFF1FE8
:10171000BB1F661F771F881F91505040A9F79E3F3F
:10172000510580F00C94E60A0C94310B5F3FE4F312
:10173000983ED4F3869577956795B795F795E79595
:101740009F5FC1F7FE2B880F911D9695879597F99E
:1017500008950E94C20A880B990B0895A1E21A2EDF
:10176000AA1BBB1BFD010DC0AA1FBB1FEE1FFF1F45
:10177000A217B307E407F50720F0A21BB30BE40B95
:10178000F50B661F771F881F991F1A9469F76095DC
:101790007095809590959B01AC01BD01CF01089596
:1017A000EE0FFF1F0590F491E02D0994F894FFCF00
:1017B000950195010000000090039400E801960156
:1017C00044697374616E63653A200020636D202064
:1017D000000D0A0054656D70657261747572653A2A
:1017E000202E2E2E20006E616E00696E66006F76D0
:1017F0006600204300436F6D6520496E21004E6FE7
:101800007420536166652100476F2041776179211B
:0E181000004D6F766520436C6F73657221008A
:107E0000112484B714BE81FFF0D085E080938100F7
:107E100082E08093C00088E18093C10086E0809377
:107E2000C20080E18093C4008EE0C9D0259A86E02C
:107E300020E33CEF91E0309385002093840096BBD3
:107E4000B09BFECF1D9AA8958150A9F7CC24DD24C4
:107E500088248394B5E0AB2EA1E19A2EF3E0BF2EE7
:107E6000A2D0813461F49FD0082FAFD0023811F036
:107E7000013811F484E001C083E08DD089C08234E0
:107E800011F484E103C0853419F485E0A6D080C0E4
:107E9000853579F488D0E82EFF2485D0082F10E0AE
:107EA000102F00270E291F29000F111F8ED06801E7
:107EB0006FC0863521F484E090D080E0DECF843638
:107EC00009F040C070D06FD0082F6DD080E0C81688
:107ED00080E7D80618F4F601B7BEE895C0E0D1E017
:107EE00062D089930C17E1F7F0E0CF16F0E7DF06D8
:107EF00018F0F601B7BEE89568D007B600FCFDCFD4
:107F0000A601A0E0B1E02C9130E011968C91119780
:107F100090E0982F8827822B932B1296FA010C0160
:107F200087BEE89511244E5F5F4FF1E0A038BF0790
:107F300051F7F601A7BEE89507B600FCFDCF97BE46
:107F4000E89526C08437B1F42ED02DD0F82E2BD052
:107F50003CD0F601EF2C8F010F5F1F4F84911BD097
:107F6000EA94F801C1F70894C11CD11CFA94CF0C13
:107F7000D11C0EC0853739F428D08EE10CD085E9AC
:107F80000AD08FE07ACF813511F488E018D01DD067
:107F900080E101D065CF982F8091C00085FFFCCF94
:107FA0009093C60008958091C00087FFFCCF809118
:107FB000C00084FD01C0A8958091C6000895E0E648
:107FC000F0E098E1908380830895EDDF803219F02E
:107FD00088E0F5DFFFCF84E1DECF1F93182FE3DFCA
:107FE0001150E9F7F2DF1F91089580E0E8DFEE27F6
:047FF000FF270994CA
:027FFE00040479
:00000001FF
